:100000000C9434000C949A010C94C7010C94F401E4
:100010000C9421020C944E020C9451000C94C903D0
:100020000C94F6030C949C030C9451000C942F0335
:100030000C946F030C9402030C94A8020C94D50248
:100040000C947B020C9451000C94C4050C94F405A0
:100050000C9451000C942A010C9451000C94510002
:100060000C9451000C94510011241FBECFEFD8E026
:10007000DEBFCDBF11E0A0E0B1E0E8E9F3E102C0EE
:1000800005900D92AC33B107D9F722E0ACE3B1E0B3
:1000900001C01D92AB30B207E1F70E9449060C94F3
:1000A000CA090C940000ECE7F0E090818295880F7B
:1000B000880F807C9F73892B80830895EAE7F0E0A6
:1000C0009081987F8770892B80830895883010F401
:1000D00080E008958FEF0895ECE7F0E09081907F45
:1000E0008F70892B8083EAE7F0E0808180648083D1
:1000F0000895CF93DF930097D9F1FC018081CCE381
:10010000D1E0888391819983228133813B832A8343
:1001100094819C8391E09D831F821E821B86188A96
:100120001D861C861E861F860E94530089810E94A0
:100130005E00EAE7F0E08081806880838C8188231C
:1001400019F0808188608083ECE7F0E08081807F17
:100150008083EAE7F0E080818064808380917A0088
:1001600086FDFCCF809178009091790080E001C0FD
:100170008FEFDF91CF9108950F931F93CF93DF936C
:1001800090914101992319F18B01C82F0E946600BB
:10019000D82F81111EC080914001811112C001151C
:1001A0001105C9F08C2F0E946C0080917A0086FDA9
:1001B000FCCF8091780090917900F8019183808341
:1001C0000BC0109247018C2F0E946C0005C0DFEF1E
:1001D00003C0DFEF01C0DFEF8D2FDF91CF911F91C3
:1001E0000F910895EF92FF921F93CF93DF9300D06A
:1001F000CDB7DEB761157105F9F09091400191110D
:100200001DC07B01BE016F5F7F4F0E94BC00182F95
:10021000811116C029813A81A0913E01B0913F0120
:100220000E94AD062FEF33E040E050E00E948B06C5
:10023000F7013183208305C01FEF03C01FEF01C00A
:100240001FEF812F0F900F90DF91CF911F91FF90A3
:10025000EF9008951F920F920FB60F9211242F93D3
:100260003F934F935F936F937F938F939F93AF933E
:10027000BF93EF93FF936091780070917900809124
:100280007C008F70ECE3F1E071876087828791E0FA
:1002900093879089992391F1978544855585292FD6
:1002A00030E0F901EE0FFF1F2E0F3F1FFA01E20FA2
:1002B000F31F0180F281E02D309709F00995ECE3FE
:1002C000F1E087858F5F878797858685981788F403
:1002D000248535859785892F90E0FC01EE0FFF1F5F
:1002E0008E0F9F1FF901E80FF91F80810E946C009B
:1002F00010C0ECE3F1E0108A17860BC02091420198
:1003000030914301232B29F0E0914201F091430108
:100310000995FF91EF91BF91AF919F918F917F913F
:100320006F915F914F913F912F910F900FBE0F9062
:100330001F9018951F920F920FB60F9211242F93B2
:100340003F934F935F936F937F938F939F93AF935D
:10035000BF93EF93FF938091530190915401892BA8
:1003600029F0E0915301F09154010995FF91EF912B
:10037000BF91AF919F918F917F916F915F914F91BD
:100380003F912F910F900FBE0F901F9018951F92C5
:100390000F920FB60F9211242F933F934F935F93B9
:1003A0006F937F938F939F93AF93BF93EF93FF933D
:1003B0008091550190915601892B29F0E0915501CA
:1003C000F09156010995FF91EF91BF91AF919F91E7
:1003D0008F917F916F915F914F913F912F910F90EE
:1003E0000FBE0F901F9018951F920F920FB60F928D
:1003F00011242F933F934F935F936F937F938F932A
:100400009F93AF93BF93EF93FF9380914D01909192
:100410004E01892B29F0E0914D01F0914E01099593
:10042000FF91EF91BF91AF919F918F917F916F91CC
:100430005F914F913F912F910F900FBE0F901F90A2
:1004400018951F920F920FB60F9211242F933F937E
:100450004F935F936F937F938F939F93AF93BF93CC
:10046000EF93FF9380914F0190915001892B29F0D8
:10047000E0914F01F09150010995FF91EF91BF91EB
:10048000AF919F918F917F916F915F914F913F912C
:100490002F910F900FBE0F901F9018951F920F92E3
:1004A0000FB60F9211242F933F934F935F936F9347
:1004B0007F938F939F93AF93BF93EF93FF9380911D
:1004C000510190915201892B29F0E0915101F09155
:1004D00052010995FF91EF91BF91AF919F918F913B
:1004E0007F916F915F914F913F912F910F900FBE30
:1004F0000F901F9018951F920F920FB60F92112414
:100500002F933F934F935F936F937F938F939F931B
:10051000AF93BF93EF93FF9380916001909161013E
:10052000892B29F0E0916001F09161010995FF911B
:10053000EF91BF91AF919F918F917F916F915F915B
:100540004F913F912F910F900FBE0F901F901895D4
:100550001F920F920FB60F9211242F933F934F9338
:100560005F936F937F938F939F93AF93BF93EF931B
:10057000FF938091620190916301892B29F0E091B2
:100580006201F09163010995FF91EF91BF91AF91E5
:100590009F918F917F916F915F914F913F912F919B
:1005A0000F900FBE0F901F9018951F920F920FB6CD
:1005B0000F9211242F933F934F935F936F937F93E9
:1005C0008F939F93AF93BF93EF93FF9380916401B9
:1005D00090916501892B29F0E0916401F09165010A
:1005E0000995FF91EF91BF91AF919F918F917F916D
:1005F0006F915F914F913F912F910F900FBE0F9090
:100600001F9018951F920F920FB60F9211242F93DF
:100610003F934F935F936F937F938F939F93AF938A
:10062000BF93EF93FF9380916B0190916C01892BA5
:1006300029F0E0916B01F0916C010995FF91EF9128
:10064000BF91AF919F918F917F916F915F914F91EA
:100650003F912F910F900FBE0F901F9018951F92F2
:100660000F920FB60F9211242F933F934F935F93E6
:100670006F937F938F939F93AF93BF93EF93FF936A
:100680008091570190915801A0915901B0915A0160
:100690000196A11DB11D8093570190935801A0931D
:1006A0005901B0935A0180916D0190916E01892B8F
:1006B00029F0E0916D01F0916E010995FF91EF91A4
:1006C000BF91AF919F918F917F916F915F914F916A
:1006D0003F912F910F900FBE0F901F9018951F9272
:1006E0000F920FB60F9211242F933F934F935F9366
:1006F0006F937F938F939F93AF93BF93EF93FF93EA
:1007000080916F0190917001892B29F0E0916F0128
:10071000F09170010995FF91EF91BF91AF919F9179
:100720008F917F916F915F914F913F912F910F909A
:100730000FBE0F901F9018951F920F920FB60F9239
:1007400011242F933F934F935F936F937F938F93D6
:100750009F93AF93BF93EF93FF9380917601909116
:100760007701892B29F0E0917601F09177010995C5
:10077000FF91EF91BF91AF919F918F917F916F9179
:100780005F914F913F912F910F900FBE0F901F904F
:1007900018951F920F920FB60F9211242F933F932B
:1007A0004F935F936F937F938F939F93AF93BF9379
:1007B000EF93FF938091780190917901892B29F033
:1007C000E0917801F09179010995FF91EF91BF9146
:1007D000AF919F918F917F916F915F914F913F91D9
:1007E0002F910F900FBE0F901F9018951F920F9290
:1007F0000FB60F9211242F933F934F935F936F93F4
:100800007F938F939F93AF93BF93EF93FF938091C9
:100810007A0190917B01892B29F0E0917A01F09186
:100820007B010995FF91EF91BF91AF919F918F91BE
:100830007F916F915F914F913F912F910F900FBEDC
:100840000F901F901895FB01811116C084EC90E069
:100850009183808380EC90E09383828381EC90E0AD
:100860009583848382EC90E09783868386EC90E086
:100870009187808780E008958FEF0895FC01E05C08
:10088000FF4F20812F5F32963081232331973081B3
:10089000231749F031973081DC01A30FB11D6C9310
:1008A000208380E008958FEF0895FC01E05CFF4F06
:1008B000308131962081321791F02081DC01A20F26
:1008C000B11D2C91DB012C932081DC01AE5BBF4F6D
:1008D0009C9181E0820F8923808380E008958FEFCF
:1008E0000895FC01E05CFF4F20812F5F329630813C
:1008F000232331973081231749F031973081DC0170
:10090000A30FB11D6C93208380E008958FEF0895AD
:10091000DC011296ED91FC911397908195FFF9CF30
:100920001896ED91FC911997608380E008950F93DC
:100930001F93CF938B01282F30E0CFB7F89458E85E
:10094000529FC001539F900D1124642F80549E4FDD
:100950000E943E04811108C0D8011496ED91FC91CB
:100960001597908190629083CFBFCF911F910F9187
:100970000895CF92DF92EF92FF920F931F93CF9340
:10098000DF93CDB7DEB72A970FB6F894DEBF0FBE60
:10099000CDBF81117DC06115710509F47BC07B015C
:1009A000182FBE016F5F7F4F0E942304082F811113
:1009B00073C028E8129FC001112483589E4FFC0188
:1009C000E05CFF4F10823196108231962FE3208336
:1009D000EF5BFF4F10823196108231962083F70132
:1009E0002781FC01EA57FF4F2083319621E02083C5
:1009F000C980DA80F70180819181A281B381880F5B
:100A0000991FAA1FBB1F880F991FAA1FBB1F9C01FC
:100A1000AD01220F331F441F551F220F331F441FE8
:100A2000551F60E074E284EF90E00E948B06215035
:100A30003109F60131832083F7018481883030F455
:100A4000873031F0863031F481E005C083E003C0A7
:100A500082E001C080E0880FF7019681913011F4A7
:100A6000806203C0923009F48063F701958192306F
:100A700009F48860EF81F8858083F701878181110F
:100A800002C088E101C088E9ED81FE81808305C054
:100A90000FEF03C00FEF01C00FEF802F2A960FB6A4
:100AA000F894DEBF0FBECDBFDF91CF911F910F91A4
:100AB000FF90EF90DF90CF900895EF92FF920F9309
:100AC0001F93CF93DF93CDB7DEB72A970FB6F89475
:100AD000DEBF0FBECDBF81112EC0E82EF12C98E8ED
:100AE0009E9DF0019F9DF00D1124EC5FFD4F9081C4
:100AF000992319F1062FBE016F5F7F4F0E942304D7
:100B000081111DC088E88E9DF0018F9DF00D11248C
:100B1000ED5FFD4F8081882341F0402FBE016F5F64
:100B20007F4F8E2D0E9497040BC0602FCE0101963F
:100B30000E94880405C08FEF03C08FEF01C08FEFC4
:100B40002A960FB6F894DEBF0FBECDBFDF91CF91CE
:100B50001F910F91FF90EF900895CF93C82F8A3087
:100B600029F46DE080917C010E945D056C2F8091DD
:100B70007C010E945D05811103C080E090E002C00D
:100B80008FEF9FEFCF9108951F920F920FB60F92A4
:100B900011242F933F934F935F936F937F938F9382
:100BA0009F93AF93BF93EF93FF936091C6008091A3
:100BB0000402882341F080910302882321F08DE70D
:100BC00091E00E947104FF91EF91BF91AF919F91CD
:100BD0008F917F916F915F914F913F912F910F90E6
:100BE0000FBE0F901F9018951F920F920FB60F9285
:100BF00011242F933F934F935F936F937F938F9322
:100C00009F93AF93BF93EF93FF93CF93DF931F9285
:100C1000CDB7DEB7BE016F5F7F4F80EC91E00E94E1
:100C20005504811104C089818093C60005C0E1ECA0
:100C3000F0E080818F7D80830F90DF91CF91FF91D5
:100C4000EF91BF91AF919F918F917F916F915F9144
:100C50004F913F912F910F900FBE0F901F901895BD
:100C6000811113C098E8899FF0011124EC5FFD4FBA
:100C70009081992361F080937C0180E091E09093D2
:100C800008028093070280E008958FEF08958FEFA8
:100C90000895CF93DF93CDB7DEB72F970FB6F894B3
:100CA000DEBF0FBECDBF88E0EEE0F1E0DE011196C1
:100CB00001900D928A95E1F7BE016F5F7F4F80E052
:100CC0000E94B90480E00E94300685E0E6E1F1E090
:100CD000DE01199601900D928A95E1F7CE010996F1
:100CE0000E9479008BE191E00E94D206BE01625F12
:100CF0007F4F80E00E94F2008F858F938E858F93C7
:100D00008CE291E09F938F930E94BC060F900F900E
:100D10000F900F90EBCFA1E21A2EAA1BBB1BFD0177
:100D20000DC0AA1FBB1FEE1FFF1FA217B307E407CA
:100D3000F50720F0A21BB30BE40BF50B661F771F22
:100D4000881F991F1A9469F7609570958095909502
:100D50009B01AC01BD01CF010895A29FB001B39FDB
:100D6000C001A39F700D811D1124911DB29F700DB4
:100D7000811D1124911D0895A0E0B0E0E2ECF6E0A1
:100D80000C94A309AE014B5F5F4FFA016191719121
:100D9000AF0180910702909108020E940207E2E0F1
:100DA0000C94BF090F931F93CF93DF93E091070239
:100DB000F0910802238121FF1BC08C01D0E0C0E02C
:100DC000F80181918F016091070270910802DB01A7
:100DD0001896ED91FC911997882331F00995892B8C
:100DE00079F3DFEFCFEFECCF8AE00995892B19F08B
:100DF0008FEF9FEF02C08D2F9C2FDF91CF911F911E
:100E00000F910895ABE0B0E0E8E0F7E00C949309AF
:100E10006C017B018A01FC0117821682838181FFAC
:100E2000CCC1CE0101963C01F6019381F70193FDFF
:100E3000859193FF81917F01882309F4BAC185329E
:100E400039F493FD859193FF81917F01853229F4D7
:100E5000B60190E00E94F908E7CF912C212C312CAB
:100E6000FFE1F315D8F08B3279F038F4803279F065
:100E70008332A1F4232D20611DC08D3261F08033B7
:100E800069F4232D216016C0832D8260382EE32D56
:100E9000E4603E2E2AC0F32DF8601DC037FC2DC043
:100EA00020ED280F2A3040F08E32B9F436FC81C193
:100EB000232D2064322E19C036FE06C08AE0989E8B
:100EC000200D1124922E11C0EAE02E9E200D112437
:100ED000222EF32DF0623F2E08C08C3621F4832D94
:100EE0008068382E02C0883641F4F70193FD859161
:100EF00093FF81917F018111B3CF982F9F7D9554EE
:100F0000933028F40C5F1F4F9FE399830DC0833605
:100F100031F0833771F0833509F059C021C0F801F1
:100F2000808189830E5F1F4F88248394912C530105
:100F300013C02801F2E04F0E511CF801A080B180CF
:100F400036FE03C0692D70E002C06FEF7FEFC50170
:100F50000E94EE084C018201F32DFF773F2E16C050
:100F6000280122E0420E511CF801A080B18036FE1B
:100F700003C0692D70E002C06FEF7FEFC5010E94D2
:100F8000E3084C01F32DF0683F2E820133FC1BC0B7
:100F9000822D90E088169906B0F4B60180E290E0C8
:100FA0000E94F9082A94F4CFF50137FC859137FEA9
:100FB00081915F01B60190E00E94F90821102A9406
:100FC00021E0821A91088114910471F7E8C08436F7
:100FD00011F0893641F5F80137FE07C06081718153
:100FE000828193810C5F1F4F08C060817181072E41
:100FF000000C880B990B0E5F1F4FF32DFF763F2ED1
:1010000097FF09C090958095709561957F4F8F4FA0
:101010009F4FF0683F2E2AE030E0A3010E9435097F
:10102000882E861845C0853731F4232D2F7EB22EA9
:101030002AE030E025C0932D997FB92E8F36C1F07C
:1010400018F4883579F0B5C0803719F0883721F069
:10105000B0C0E92FE061BE2EB4FE0DC0FB2DF460E0
:10106000BF2E09C034FE0AC0292F2660B22E06C04A
:1010700028E030E005C020E130E002C020E132E0AD
:10108000F801B7FE07C060817181828193810C5F96
:101090001F4F06C06081718180E090E00E5F1F4F9E
:1010A000A3010E943509882E8618FB2DFF773F2E5D
:1010B00036FE0DC0232D2E7FA22E891458F434FE47
:1010C0000BC032FC09C0832D8E7EA82E05C0B82C23
:1010D000A32C03C0B82C01C0B92CA4FE0FC0FE0184
:1010E000E80DF11D8081803321F49A2D997EA92E7F
:1010F00009C0A2FE06C0B394B39404C08A2D8678BA
:1011000009F0B394A3FC11C0A0FE06C0B21488F489
:10111000280C922C9B180EC0B21460F4B60180E229
:1011200090E00E94F908B394F7CFB21418F42B188A
:1011300002C0982C212CA4FE10C0B60180E390E0E0
:101140000E94F908A2FE17C0A1FC03C088E790E046
:1011500002C088E590E0B6010CC08A2D867859F06F
:10116000A1FE02C08BE201C080E2A7FC8DE2B601C5
:1011700090E00E94F908891438F4B60180E390E009
:101180000E94F9089A94F7CF8A94F301E80DF11DB3
:101190008081B60190E00E94F9088110F5CF2220ED
:1011A00009F442CEB60180E290E00E94F9082A9448
:1011B000F6CFF6018681978102C08FEF9FEF2B96C5
:1011C000E2E10C94AF09FC01059061507040011000
:1011D000D8F7809590958E0F9F1F0895FC01615060
:1011E000704001900110D8F7809590958E0F9F1F49
:1011F00008950F931F93CF93DF93FB01238121FD6C
:1012000003C08FEF9FEF2CC022FF16C0468157818D
:10121000248135814217530744F4A081B1819D0197
:101220002F5F3F4F318320838C93268137812F5F3F
:101230003F4F3783268314C08B01EC01FB010084F0
:10124000F185E02D0995892BE1F6D80116968D914F
:101250009C911797019617969C938E931697CE01A3
:10126000DF91CF911F910F910895FA01AA2728309D
:1012700051F1203181F1E8946F936E7F6E5F7F4F63
:101280008F4F9F4FAF4FB1E03ED0B4E03CD0670FDF
:10129000781F891F9A1FA11D680F791F8A1F911D32
:1012A000A11D6A0F711D811D911DA11D20D009F482
:1012B00068943F912AE0269F11243019305D3193C4
:1012C000DEF6CF010895462F4770405D4193B3E0AD
:1012D0000FD0C9F7F6CF462F4F70405D4A3318F054
:1012E000495D31FD4052419302D0A9F7EACFB4E005
:1012F000A6959795879577956795BA95C9F70097BD
:101300006105710508959B01AC010A2E069457955D
:10131000479537952795BA95C9F7620F731F841FB4
:10132000951FA01D08952F923F924F925F926F924A
:101330007F928F929F92AF92BF92CF92DF92EF9265
:10134000FF920F931F93CF93DF93CDB7DEB7CA1BE6
:10135000DB0B0FB6F894DEBF0FBECDBF09942A8811
:10136000398848885F846E847D848C849B84AA84B9
:10137000B984C884DF80EE80FD800C811B81AA8146
:10138000B981CE0FD11D0FB6F894DEBF0FBECDBF11
:08139000ED010895F894FFCF70
:101398000000000200000000AD05000000008025EC
:1013A8000000080100000107881300536973746581
:1013B8006D6120696E69636961646F0054656E735D
:0C13C800696F6E3A202575206D560A00F2
:00000001FF
