:100000000C9434000C943E000C943E000C943E0082
:100010000C943E000C943E000C943E000C943E0068
:100020000C943E000C943E000C943E000C943E0058
:100030000C943E000C943E000C943E000C943E0048
:100040000C943E000C943E000C943E000C943E0038
:100050000C943E000C943E000C943E000C943E0028
:100060000C943E000C943E0011241FBECFEFD8E04C
:10007000DEBFCDBF0E9440000C9456000C940000DF
:1000800084B1816084B98AB18D7F8AB9499BFECFE2
:1000900095B181E0892785B92FEF81EE94E0215059
:1000A00080409040E1F700C00000F0CFF894FFCF0F
:00000001FF
