S0120000554152545F41505030312E7372656335
S11300000C94B5000C941B020C9448020C947502D9
S11300100C94A2020C94CF020C94D2000C944A04C7
S11300200C9477040C941D040C94D2000C94B0032B
S11300300C94F0030C9483030C9429030C9456033E
S11300400C94FC020C94D2000C9445060C94750696
S11300500C94D2000C94AB010C94D2000C94D200FA
S11300600C94D2000C94D2006E616E00696E66002E
S113007000407A10F35A00A0724E18090010A5D45B
S1130080E80000E87648170000E40B54020000CAB8
S11300909A3B000000E1F5050000809698000000FE
S11300A040420F000000A08601000000102700005D
S11300B00000E803000000006400000000000A00E3
S11300C0000000000100000000002C76D888DC67E6
S11300D04F0823DFC1DFAE59E1B1B796E5E3E4533E
S11300E0C63AE651997696E8E6C28426EB898C9B5B
S11300F062ED407C6FFCEFBC9C9F40F2BAA56FA5FB
S1130100F490055A2AF75C936B6CF9676DC11BFC7C
S1130110E0E40D47FEF520E6B500D0ED902E030097
S1130120943577050080841E080000204E0A0000E4
S113013000C80C333333330F986E12831141EF8DA3
S11301402114893BE65516CFFEE6DB18D1844B38E3
S11301501BF77C1D901DA4BBE424203284725E2214
S11301608100C9F124ECA1E53D2711241FBECFEF86
S1130170D8E0DEBFCDBF11E0A0E0B1E0E0E7FBE1F5
S113018002C005900D92AC33B107D9F722E0ACE37D
S1130190B1E001C01D92A331B207E1F70E94CA0683
S11301A00C94B60D0C940000ECE7F0E0908182957D
S11301B0880F880F807C9F73892B80830895EAE7DA
S11301C0F0E09081987F8770892B80830895883030
S11301D010F480E008958FEF0895ECE7F0E090814B
S11301E0907F8F70892B8083EAE7F0E080818064C0
S11301F080830895CF93DF930097D9F1FC01808128
S1130200CCE3D1E0888391819983228133813B833C
S11302102A8394819C8391E09D831F821E821B8686
S1130220188A1D861C861E861F860E94D40089811A
S11302300E94DF00EAE7F0E08081806880838C819F
S1130240882319F0808188608083ECE7F0E0808166
S1130250807F8083EAE7F0E08081806480838091FE
S11302607A0086FDFCCF809178009091790080E03F
S113027001C08FEFDF91CF9108950F931F93CF9318
S1130280DF9390914101992319F18B01C82F0E94AA
S1130290E700D82F81111EC080914001811112C046
S11302A001151105C9F08C2F0E94ED0080917A0090
S11302B086FDFCCF8091780090917900F8019183BC
S11302C080830BC0109247018C2F0E94ED0005C063
S11302D0DFEF03C0DFEF01C0DFEF8D2FDF91CF91A0
S11302E01F910F910895EF92FF921F93CF93DF9385
S11302F000D0CDB7DEB761157105F9F090914001DA
S113030091111DC07B01BE016F5F7F4F0E943D01B3
S1130310182F811116C029813A81A0913E01B09114
S11303203F010E94D20B2FEF33E040E050E00E94E7
S1130330B00BF7013183208305C01FEF03C01FEF0B
S113034001C01FEF812F0F900F90DF91CF911F916C
S1130350FF90EF9008951F920F920FB60F92112401
S11303602F933F934F935F936F937F938F939F93B9
S1130370AF93BF93EF93FF936091780070917900EE
S113038080917C008F70ECE3F1E071876087828755
S113039091E093879089992391F1978544855585B8
S11303A0292F30E0F901EE0FFF1F2E0F3F1FFA0136
S11303B0E20FF31F0180F281E02D309709F00995D7
S11303C0ECE3F1E087858F5F8787978586859817AB
S11303D088F4248535859785892F90E0FC01EE0FFC
S11303E0FF1F8E0F9F1FF901E80FF91F80810E94E4
S11303F0ED0010C0ECE3F1E0108A17860BC02091E9
S1130400420130914301232B29F0E0914201F09104
S113041043010995FF91EF91BF91AF919F918F9106
S11304207F916F915F914F913F912F910F900FBEEC
S11304300F901F9018951F920F920FB60F921124D0
S11304402F933F934F935F936F937F938F939F93D8
S1130450AF93BF93EF93FF93809153019091540115
S1130460892B29F0E0915301F09154010995FF91F2
S1130470EF91BF91AF919F918F917F916F915F9118
S11304804F913F912F910F900FBE0F901F90189591
S11304901F920F920FB60F9211242F933F934F93F5
S11304A05F936F937F938F939F93AF93BF93EF93D8
S11304B0FF938091550190915601892B29F0E09189
S11304C05501F09156010995FF91EF91BF91AF91BC
S11304D09F918F917F916F915F914F913F912F9158
S11304E00F900FBE0F901F9018951F920F920FB68A
S11304F00F9211242F933F934F935F936F937F93A6
S11305008F939F93AF93BF93EF93FF9380914D018C
S113051090914E01892B29F0E0914D01F0914E010B
S11305200995FF91EF91BF91AF919F918F917F9129
S11305306F915F914F913F912F910F900FBE0F904C
S11305401F9018951F920F920FB60F9211242F939C
S11305503F934F935F936F937F938F939F93AF9347
S1130560BF93EF93FF9380914F0190915001892B9A
S113057029F0E0914F01F09150010995FF91EF911D
S1130580BF91AF919F918F917F916F915F914F91A7
S11305903F912F910F900FBE0F901F9018951F92AF
S11305A00F920FB60F9211242F933F934F935F93A3
S11305B06F937F938F939F93AF93BF93EF93FF9327
S11305C08091510190915201892B29F0E0915101C0
S11305D0F09152010995FF91EF91BF91AF919F91D5
S11305E08F917F916F915F914F913F912F910F90D8
S11305F00FBE0F901F9018951F920F920FB60F9277
S113060011242F933F934F935F936F937F938F9313
S11306109F93AF93BF93EF93FF9380916001909169
S11306206101892B29F0E0916001F0916101099544
S1130630FF91EF91BF91AF919F918F917F916F91B6
S11306405F914F913F912F910F900FBE0F901F908C
S113065018951F920F920FB60F9211242F933F9368
S11306604F935F936F937F938F939F93AF93BF93B6
S1130670EF93FF938091620190916301892B29F09C
S1130680E0916201F09163010995FF91EF91BF91AF
S1130690AF919F918F917F916F915F914F913F9116
S11306A02F910F900FBE0F901F9018951F920F92CD
S11306B00FB60F9211242F933F934F935F936F9331
S11306C07F938F939F93AF93BF93EF93FF93809107
S11306D0640190916501892B29F0E0916401F09106
S11306E065010995FF91EF91BF91AF919F918F9112
S11306F07F916F915F914F913F912F910F900FBE1A
S11307000F901F9018951F920F920FB60F921124FD
S11307102F933F934F935F936F937F938F939F9305
S1130720AF93BF93EF93FF9380916B0190916C0112
S1130730892B29F0E0916B01F0916C010995FF91EF
S1130740EF91BF91AF919F918F917F916F915F9145
S11307504F913F912F910F900FBE0F901F901895BE
S11307601F920F920FB60F9211242F933F934F9322
S11307705F936F937F938F939F93AF93BF93EF9305
S1130780FF938091570190915801A0915901B09124
S11307905A010196A11DB11D8093570190935801F0
S11307A0A0935901B0935A0180916D0190916E010B
S11307B0892B29F0E0916D01F0916E010995FF916B
S11307C0EF91BF91AF919F918F917F916F915F91C5
S11307D04F913F912F910F900FBE0F901F9018953E
S11307E01F920F920FB60F9211242F933F934F93A2
S11307F05F936F937F938F939F93AF93BF93EF9385
S1130800FF9380916F0190917001892B29F0E09101
S11308106F01F09170010995FF91EF91BF91AF9134
S11308209F918F917F916F915F914F913F912F9104
S11308300F900FBE0F901F9018951F920F920FB636
S11308400F9211242F933F934F935F936F937F9352
S11308508F939F93AF93BF93EF93FF938091760110
S113086090917701892B29F0E0917601F09177013D
S11308700995FF91EF91BF91AF919F918F917F91D6
S11308806F915F914F913F912F910F900FBE0F90F9
S11308901F9018951F920F920FB60F9211242F9349
S11308A03F934F935F936F937F938F939F93AF93F4
S11308B0BF93EF93FF938091780190917901892BF5
S11308C029F0E0917801F09179010995FF91EF9178
S11308D0BF91AF919F918F917F916F915F914F9154
S11308E03F912F910F900FBE0F901F9018951F925C
S11308F00F920FB60F9211242F933F934F935F9350
S11309006F937F938F939F93AF93BF93EF93FF93D3
S113091080917A0190917B01892B29F0E0917A01F1
S1130920F0917B010995FF91EF91BF91AF919F9158
S11309308F917F916F915F914F913F912F910F9084
S11309400FBE0F901F901895FB01811116C084EC07
S113095090E09183808380EC90E09383828381ECA8
S113096090E09583848382EC90E09783868386EC81
S113097090E09187808780E008958FEF0895FC01CF
S1130980E05CFF4F20812F5F329630812323319723
S11309903081231749F031973081DC01A30FB11D59
S11309A06C93208380E008958FEF0895FC01E05C50
S11309B0FF4F308131962081321791F02081DC0184
S11309C0A20FB11D2C91DB012C932081DC01AE5BC5
S11309D0BF4F9C9181E0820F8923808380E008953A
S11309E08FEF0895FC01E05CFF4F20812F5F32966A
S11309F03081232331973081231749F03197308197
S1130A00DC01A30FB11D6C93208380E008958FEF68
S1130A100895DC011296ED91FC911397908195FF56
S1130A20F9CF1896ED91FC911997608380E00895B1
S1130A300F931F93CF938B01282F30E0CFB7F894F7
S1130A4058E8529FC001539F900D1124642F805485
S1130A509E4F0E94BF04811108C0D8011496ED91E5
S1130A60FC911597908190629083CFBFCF911F9195
S1130A700F910895CF92DF92EF92FF920F931F93FD
S1130A80CF93DF93CDB7DEB72A970FB6F894DEBFC6
S1130A900FBECDBF81117DC06115710509F47BC006
S1130AA07B01182FBE016F5F7F4F0E94A404082FA3
S1130AB0811173C028E8129FC001112483589E4FEE
S1130AC0FC01E05CFF4F10823196108231962FE3D7
S1130AD02083EF5BFF4F1082319610823196208382
S1130AE0F7012781FC01EA57FF4F2083319621E06B
S1130AF02083C980DA80F70180819181A281B3814A
S1130B00880F991FAA1FBB1F880F991FAA1FBB1FFD
S1130B109C01AD01220F331F441F551F220F331FA9
S1130B20441F551F60E074E284EF90E00E94B00B14
S1130B3021503109F60131832083F7018481883003
S1130B4030F4873031F0863031F481E005C083E041
S1130B5003C082E001C080E0880FF70196819130E4
S1130B6011F4806203C0923009F48063F701958127
S1130B70923009F48860EF81F8858083F7018781DA
S1130B80811102C088E101C088E9ED81FE81808382
S1130B9005C00FEF03C00FEF01C00FEF802F2A969F
S1130BA00FB6F894DEBF0FBECDBFDF91CF911F917A
S1130BB00F91FF90EF90DF90CF900895EF92FF9206
S1130BC00F931F93CF93DF93CDB7DEB72A970FB65A
S1130BD0F894DEBF0FBECDBF81112EC0E82EF12CDC
S1130BE098E89E9DF0019F9DF00D1124EC5FFD4F50
S1130BF09081992319F1062FBE016F5F7F4F0E94E8
S1130C00A40481111DC088E88E9DF0018F9DF00D14
S1130C101124ED5FFD4F8081882341F0402FBE01F8
S1130C206F5F7F4F8E2D0E9418050BC0602FCE0181
S1130C3001960E94090505C08FEF03C08FEF01C024
S1130C408FEF2A960FB6F894DEBF0FBECDBFDF91AB
S1130C50CF911F910F91FF90EF900895CF93C82FDC
S1130C608A3029F46DE080917C010E94DE056C2FAE
S1130C7080917C010E94DE05811103C080E090E038
S1130C8002C08FEF9FEFCF9108951F920F920FB67E
S1130C900F9211242F933F934F935F936F937F93FE
S1130CA08F939F93AF93BF93EF93FF936091C6008D
S1130CB080910402882341F080910302882321F06B
S1130CC08DE791E00E94F204FF91EF91BF91AF9103
S1130CD09F918F917F916F915F914F913F912F9150
S1130CE00F900FBE0F901F9018951F920F920FB682
S1130CF00F9211242F933F934F935F936F937F939E
S1130D008F939F93AF93BF93EF93FF93CF93DF930F
S1130D101F92CDB7DEB7BE016F5F7F4F80EC91E0CD
S1130D200E94D604811104C089818093C60005C045
S1130D30E1ECF0E080818F7D80830F90DF91CF9193
S1130D40FF91EF91BF91AF919F918F917F916F919F
S1130D505F914F913F912F910F900FBE0F901F9075
S1130D601895811113C098E8899FF0011124EC5F54
S1130D70FD4F9081992361F080937C0180E091E0A4
S1130D809093100280930F0280E008958FEF0895EE
S1130D908FEF0895CF93DF93CDB7DEB72D970FB6BE
S1130DA0F894DEBF0FBECDBF88E0EEE0F1E0DE01D7
S1130DB0119601900D928A95E1F7BE016F5F7F4F06
S1130DC080E00E943A0580E00E94B10685E0E6E1F9
S1130DD0F1E0DE01199601900D928A95E1F7CE01BA
S1130DE009960E94FA0069E072E080E00E947301B3
S1130DF06BE072E081E00E94730160910B027091DC
S1130E000C0280E090E00E9438072EE93EE14CECB1
S1130E105DE30E947507262F372F462F572F682F23
S1130E20792F409305025093060260930702709352
S1130E3008029F938F933F932F9380910A028F937D
S1130E40809109028F938BE191E09F938F930E948D
S1130E50420D2FEF89E698E1215080409040E1F760
S1130E6000C000000FB6F894DEBF0FBECDBFBBCFED
S1130E70E89409C097FB3EF4909580957095619530
S1130E807F4F8F4F9F4F9923A9F0F92F96E9BB27E6
S1130E909395F695879577956795B795F111F8CF62
S1130EA0FAF4BB0F11F460FF1BC06F5F7F4F8F4FCD
S1130EB09F4F16C0882311F096E911C0772321F0C3
S1130EC09EE8872F762F05C0662371F096E8862F5B
S1130ED070E060E02AF09A95660F771F881FDAF7B2
S1130EE0880F9695879597F908950E9488070C9422
S1130EF0F9070E94EB0738F00E94F20720F09523CF
S1130F0011F00C94E2070C94E80711240C942D08BA
S1130F100E940A0870F3959FC1F3950F50E0551F86
S1130F20629FF001729FBB27F00DB11D639FAA273A
S1130F30F00DB11DAA1F649F6627B00DA11D661F89
S1130F40829F2227B00DA11D621F739FB00DA11DAA
S1130F50621F839FA00D611D221F749F3327A00D64
S1130F60611D231F849F600D211D822F762F6A2F00
S1130F7011249F5750409AF0F1F088234AF0EE0F65
S1130F80FF1FBB1F661F771F881F91505040A9F792
S1130F909E3F510580F00C94E2070C942D085F3FAE
S1130FA0E4F3983ED4F3869577956795B795F795CE
S1130FB0E7959F5FC1F7FE2B880F911D9695879546
S1130FC097F9089597F99F6780E870E060E00895C5
S1130FD09FEF80EC089500240A941616170618064D
S1130FE00906089500240A94121613061406050629
S1130FF00895092E0394000C11F4882352F0BB0FBA
S113100040F4BF2B11F460FF04C06F5F7F4F8F4F1C
S11310109F4F089557FD9058440F551F59F05F3F57
S113102071F04795880F97FB991F61F09F3F79F006
S113103087950895121613061406551FF2CF469588
S1131040F1DF08C0161617061806991FF1CF86950A
S11310507105610508940895E894BB2766277727EE
S1131060CB0197F90895A0E1B0E0E9E3F8E00C942E
S1131070E10B7C011B016A01FC011782168283814A
S113108081FF44C39E012F5F3F4F3901F7019381D4
S1131090F10193FD859193FF81911F01882309F448
S11310A031C3853239F493FD859193FF81911F01FA
S11310B0853239F4B70190E00E94060D56016501AE
S11310C0E5CF10E0512C912CFFE1F915D8F08B32CB
S11310D079F038F4803279F08332A1F4F92DF0619B
S11310E02EC08D3261F0803369F4292D21602DC02A
S11310F0392D3260932E892D8460982E2AC0E92DD3
S1131100E86015C097FC2DC020ED280F2A3088F424
S113111096FE06C03AE0139F200D1124122F19C029
S11311208AE0589E200D1124522EE92DE0629E2E55
S113113010C08E3231F496FCE5C2F92DF0649F2E76
S113114008C08C3621F4292D2068922E02C08836DE
S113115041F4F10193FD859193FF81911F01811168
S1131160B3CF9BEB980F933020F4992D9061805E60
S113117007C09BE9980F933008F066C1992D9F7EB4
S113118096FF16E09F73992E853619F49064992E74
S113119008C0863621F4392F3068932E02C011110D
S11311A0115097FE07C01C3350F444244394410E5D
S11311B027E00BC0183038F027E017E005C027E01F
S11311C09CE3492E02C0212F412C560184E0A80E35
S11311D0B11CF6016081718182819381042DA30188
S11311E00E94180C6C01F981FC87F0FF02C0F3FF28
S11311F006C091FC06C092FE06C000E205C00DE2E6
S113120003C00BE201C000E08C858C7019F0011161
S11312105AC29BC297FE10C04C0CFC85F4FF04C05C
S11312208A81813309F44A94141474F528E024154E
S113123078F588E0482E2CC096FC2AC0812F90E0D7
S11312408C159D059CF03CEFC3163FEFD30674F05C
S1131250892D8068982E0AC0E2E0F0E0EC0FFD1FB3
S1131260E10FF11D8081803319F411501111F4CF75
S113127097FE0EC044244394410E812F90E0C8167B
S1131280D9062CF41C1904C04424439401C010E072
S113129097FE06C01C141D0434F4C601019605C053
S11312A085E090E002C081E090E0011101961123F5
S11312B031F0212F30E02F5F3F4F820F931F252DF8
S11312C030E08217930714F4581A01C0512C892D69
S11312D0897049F4552039F0B70180E290E00E940A
S11312E0060D5A94F7CF002329F0B701802F90E020
S11312F00E94060D93FC09C0552039F0B70180E324
S113130090E00E94060D5A94F7CF97FE4CC0460118
S1131310D7FE02C0812C912CC60188199909F301CA
S1131320E80FF91FFE87ED87960124193109388BE0
S11313302F87012F10E01195019511093FEF8316B6
S1131340930629F4B7018EE290E00E94060DC814BA
S1131350D9044CF08F8598898815990524F4ED8576
S1131360FE85818101C080E3F1E08F1A91082D850B
S11313703E852F5F3F4F3E872D87801691062CF0C8
S1131380B70190E00E94060DD9CFC814D90441F4E6
S11313909A81963320F4953319F43C8534FF81E324
S11313A0B70190E04EC08A81813319F09C859F7EFD
S11313B09C87B70190E00E94060D111105C094FCB2
S11313C018C085E690E017C0B7018EE290E00E9455
S11313D0060D1E5F82E001E0080FF301E80FF11D26
S11313E08081B70190E00E94060D802F0113F3CF96
S11313F0E6CF85E490E0B7010E94060DD7FC06C055
S1131400C114D10441F4EC85E4FF05C0D194C19426
S1131410D1088DE201C08BE2B70190E00E94060D75
S113142080E32AE0C216D1042CF08F5FFAE0CF1AD1
S1131430D108F7CFB70190E00E94060DB701C601AD
S1131440C0960E94060D54C1833631F0833779F07B
S1131450833509F056C020C0560132E0A30EB11CFA
S1131460F6018081898301E010E0630112C0560116
S1131470F2E0AF0EB11CF601C080D18096FE03C02D
S1131480612F70E002C06FEF7FEFC6010E94FB0C7A
S11314908C01F92DFF7714C0560122E0A20EB11C75
S11314A0F601C080D18096FE03C0612F70E002C0B7
S11314B06FEF7FEFC6010E94F00C8C01F92DF068EC
S11314C09F2EF3FD1AC0852D90E008171907A8F484
S11314D0B70180E290E00E94060D5A94F4CFF60121
S11314E097FC859197FE81916F01B70190E00E946E
S11314F0060D51105A94015011090115110579F77F
S1131500F7C0843611F0893661F5560197FE09C09B
S113151024E0A20EB11CF601608171818281938165
S11315200AC0F2E0AF0EB11CF60160817181072E92
S1131530000C880B990BF92DFF769F2E97FF09C09D
S113154090958095709561957F4F8F4F9F4FF06870
S11315509F2E2AE030E0A3010E94580DC82EC61821
S11315603FC0092D853721F40F7E2AE030E01DC0ED
S1131570097F8F3691F018F4883559F0C3C080374D
S113158019F0883711F0BEC0006104FF09C004607F
S113159007C094FE08C0066006C028E030E005C01D
S11315A020E130E002C020E132E0560107FF09C02B
S11315B084E0A80EB11CF60160817181828193815F
S11315C008C0F2E0AF0EB11CF6016081718180E0C9
S11315D090E0A3010E94580DC82EC6180F77902ED4
S11315E096FE0BC0092D0E7FC11650F494FE0AC05E
S11315F092FC08C0092D0E7E05C0DC2C092D03C009
S1131600DC2C01C0D12E04FF0DC0FE01EC0DF11D38
S11316108081803311F4097E09C002FF06C0D3948F
S1131620D39404C0802F867809F0D39403FD11C0AD
S113163000FF06C01C2DD51480F4150D1D190DC016
S1131640D51458F4B70180E290E00E94060DD394BB
S1131650F7CFD51410F45D1801C0512C04FF10C04D
S1131660B70180E390E00E94060D02FF17C001FD60
S113167003C088E790E002C088E590E0B7010CC0A1
S1131680802F867859F001FF02C08BE201C080E20E
S113169007FD8DE2B70190E00E94060DC11638F4F3
S11316A0B70180E390E00E94060D1150F7CFCA9471
S11316B0F301EC0DF11D8081B70190E00E94060D4D
S11316C0C110F5CF15C0F4E0F51560F584E0581AA3
S11316D093FE1FC0011127C02C8523FF2AC008E6F2
S11316E010E0392D3071932EF8018491811124C0BA
S11316F0552009F4E4CCB70180E290E00E94060D85
S11317005A94F6CFF7018681978126C08FEF9FEF19
S113171023C0B70180E290E00E94060D5A94511054
S1131720F8CFD8CF512CB701802F90E00E94060D3E
S1131730D3CF0CE610E0D5CF91108052B70190E0E2
S11317400E94060D0F5F1F4FCFCF23E0251510F425
S113175083E0BDCF512CC0CF6096E2E10C94FD0B29
S1131760A1E21A2EAA1BBB1BFD010DC0AA1FBB1FA1
S1131770EE1FFF1FA217B307E407F50720F0A21B13
S1131780B30BE40BF50B661F771F881F991F1A9480
S113179069F760957095809590959B01AC01BD01AA
S11317A0CF010895A29FB001B39FC001A39F700D04
S11317B0811D1124911DB29F700D811D1124911D55
S11317C008952F923F924F925F926F927F928F92E1
S11317D09F92AF92BF92CF92DF92EF92FF920F93BC
S11317E01F93CF93DF93CDB7DEB7CA1BDB0B0FB6C6
S11317F0F894DEBF0FBECDBF09942A883988488883
S11318005F846E847D848C849B84AA84B984C88418
S1131810DF80EE80FD800C811B81AA81B981CE0F0F
S1131820D11D0FB6F894DEBF0FBECDBFED010895F4
S1131830283008F027E03327DA01990F311D87FD9E
S1131840916000966105710539F432602E5F3D9315
S113185030E32A95E1F708959F3F30F08038710511
S1131860610509F03C5F3C5F3D93913008F080686E
S1131870911DDF93CF931F930F93FF92EF92192F34
S1131880987F9695E92F96959695E90FFF27E6534D
S1131890FF4F99273327EE24FF24A701E701059082
S11318A00894079428F4360FE71EF81E491F511DAB
S11318B0660F771F881F991F0694A1F70590079458
S11318C028F4E70EF81E491F561FC11D770F881F05
S11318D0991F661F0694A1F70590079428F4F80E43
S11318E0491F561FC71FD11D880F991F661F771FD9
S11318F00694A1F70590079420F4490F561FC71FBB
S1131900D81F990F661F771F881F0694A9F7849123
S11319101095177041F0D695C79557954795F7944C
S1131920E7941A95C1F7E0E7F0E0689415901591F3
S113193035916591959105907FE27395E118F10ACF
S1131940430B560BC90BD009C0F7E10CF11E431F22
S1131950561FC91FD01D7EF4703311F48A95E6CF4B
S1131960E894015030F0080F0AF40027021708F435
S1131970202F2395022F7A3328F079E37D932A953B
S1131980E9F710C07D932A9589F606949795679593
S1131990379517951794E118F10A430B560BC90BA9
S11319A0D00998F023957E9173957A3308F070E30B
S11319B07C932013B8F77E9170617D9330F083950A
S11319C071E37D9370E32A95E1F71124EF90FF9082
S11319D00F911F91CF91DF91992787FD90950895DD
S11319E0FC010590615070400110D8F780959095E6
S11319F08E0F9F1F0895FC016150704001900110EB
S1131A00D8F7809590958E0F9F1F08950F931F937D
S1131A10CF93DF93FB01238121FD03C08FEF9FEF61
S1131A202CC022FF16C0468157812481358142177C
S1131A30530744F4A081B1819D012F5F3F4F31834F
S1131A4020838C93268137812F5F3F4F37832683F2
S1131A5014C08B01EC01FB010084F185E02D099594
S1131A60892BE1F6D80116968D919C9117970196D2
S1131A7017969C938E931697CE01DF91CF911F9169
S1131A800F910895A0E0B0E0E8E4FDE00C94F10BC0
S1131A90AE014B5F5F4FFA0161917191AF0180918B
S1131AA00F02909110020E943308E2E00C940D0C96
S1131AB0FA01AA27283051F1203181F1E8946F937B
S1131AC06E7F6E5F7F4F8F4F9F4FAF4FB1E03ED021
S1131AD0B4E03CD0670F781F891F9A1FA11D680FBF
S1131AE0791F8A1F911DA11D6A0F711D811D911DF2
S1131AF0A11D20D009F468943F912AE0269F112467
S1131B003019305D3193DEF6CF010895462F4770CA
S1131B10405D4193B3E00FD0C9F7F6CF462F4F7025
S1131B20405D4A3318F0495D31FD4052419302D083
S1131B30A9F7EACFB4E0A695979587957795679529
S1131B40BA95C9F700976105710508959B01AC0129
S1131B500A2E06945795479537952795BA95C9F750
S1131B60620F731F841F951FA01D0895F894FFCF63
S1131B7000000002000000002E0600000000802586
S1131B800000080100000107881300564F4C543A26
S1131B9020253475206D56207C2054656D703A20C4
S10F1BA025352E316620B043200A0000D9
S9030000FC
